:1000000043EF00F0EA6A0E0EE96EEF50D8B40FEF3E
:1000100000F0840E006E002EFED7EF2EFAD76EEFA2
:1000200000F00D500F02F3CF01F0F4CF00F01002FA
:10003000F35000260E500F02F3500020026EB5EF71
:1000400000F0016A026A006A036A105002E10F5070
:1000500018E0100E116ED8900D360E3600360336AD
:100060001050035C02E10F50005C07E30F50005E8C
:10007000D8A003061050035ED88001360236112E38
:10008000EAD7D0EF00F0F86AD09E949C8B8CC150D8
:10009000C00B0F09C16E070EB46E600ED36E400E1A
:1000A0009B6ED350FF0E926E000E946EFF0E956EF7
:1000B000936E9680968296849696C150C00B0F09D7
:1000C000C16E066A056A086A076A0A6A096A0C6AE2
:1000D0000B6A020E0D6EFA0E0E6E94D70D2EFBD724
:1000E00096809682968496860C6A84CF0BF00B508D
:1000F000060811E10C520FE19368066A81CF05F002
:100100009568086A83CF07F007500524096E0850E8
:1001100006200A6E4CD00B50050811E10C520FE17D
:100120009368066A81CF05F09568086A83CF07F067
:100130000750055C096E085006580A6E38D00B50FF
:10014000030818E10C5216E19368066A81CF05F0A6
:100150009568086A83CF07F006C00EF005C00DF061
:1001600008C010F007C00FF05CD702C00AF001C051
:1001700009F01DD00B50020818E10C5216E19368EB
:10018000066A81CF05F09568086A83CF07F006C03C
:100190000EF005C00DF008C010F007C00FF051D7E9
:1001A00002C00AF001C009F002D00A6A096A926A24
:0C01B0000AC089FF09C08BFF8CD7030038
:020000040030CA
:0E0000000002181E000581000FC00FE00F4027
:00000001FF
;PIC18F4620
;CRC=C320  CREATED="25-mar.-19 17:02"
